:100000000C9466000C945D010C945D010C945D01F0
:100010000C945D010C945D010C945D010C945D01E8
:100020000C945D010C945D010C945D010C945D01D8
:100030000C945D010C945D010C945D010C945D01C8
:100040000C945D010C945D010C945D010C945D01B8
:100050000C945D010C945D010C945D010C945D01A8
:100060000C945D010C945D010C945D010C945D0198
:100070000C945D010C945D010C945D010C945D0188
:100080000C945D010C945D010C945D010C945D0178
:100090000C945D010C945D010C945D010C945D0168
:1000A0000C945D010C945D010C945D010C945D0158
:1000B0000C945D010C945D010C945D010C945D0148
:1000C0000C945D010C945D010C945D0111241FBE24
:1000D000CFEFD8E0DEBFCDBF0E9472000C9470005D
:0400E000F894FFCFC2
:1000E4008FE18AB98DB180618DB98EB18F7E8EB961
:1000F4008FEF8BB981B1807F81B982B18F6082B972
:10010400C0E0009914C0CF5F8C2F80958BB9C032AA
:1001140018F00E943501C0E088EE93E00E944F0180
:1001240004C088EE93E00E944F01009BFACF01992E
:1001340014C0C1508C2F80958BB9CF3F19F40E9405
:100144003501CFE188EE93E00E944F0104C088EEB0
:1001540093E00E944F01019BFACF029911C08FEFE7
:100164008BB98BB187608BB988EE93E00E944F0105
:1001740004C088EE93E00E944F01029BFACFC0E0D6
:100184000399BFCF0E94D000882319F00E94350143
:0C019400B8CF0E9416010E943501B3CFC5
:1001A0008BB18E7F8BB988E893E10E944F018BB1B0
:1001B00081608BB98BB18D7F8BB988E893E10E9408
:1001C0004F018BB182608BB98BB18B7F8BB988E883
:1001D00093E10E944F018BB184608BB980E01EC017
:1001E000811104C0009902C08F5F18C081110CC03A
:1001F00020B130B1269591E02927217036953695AA
:1002000093279170922B71F4813021F4019902C0EF
:100210008F5F04C0823011F4029B06C0833000F36C
:0C02200080E0089580E0089581E00895DA
:10022C00CF93DF93DCB1C9B18AB1856A8AB98DB13C
:10023C0080628DB98BB18A758BB98EB18F7D8EB979
:10024C0080E197E20E944F018BB1856A8BB98EB128
:0E025C0080628EB9DDB9CAB9DF91CF910895E5
:10026A00CF93DF93C0E0D0E00FC08EB180618EB92A
:10027A0082E390E00E944F018EB18F7E8EB982E3B5
:10028A0090E00E944F012196CC33D10574F3DF919F
:04029A00CF91089563
:10029E0007C089EF90E00197F1F700C00000C90197
:0C02AE009C0121503109892BA1F7089513
:0402BA000C940000A0
:00000001FF
